:03000000020100FA
:05001B00DA02D20232FE
:1001000074021209307428120930740C1209307408
:100110000612093074D0120930744C12095074550B
:100120001209507444120950744F1209507420126D
:100130000950744B1209507449120950744E120937
:10014000507447120950758912758CFA758AFAD263
:100150008CD2AFD2AB1205707A121204F0748012F6
:1001600009307452120950744F120950744C12091C
:1001700050744C120950742012095075800F785C2D
:10018000760008B880FA7831760008B839FA120992
:10019000A01209F91208901208003004030203E2C9
:1001A000E539B40602D20078307E01120700200340
:1001B000030201FE120600E6702220000B1205D099
:1001C0007A121204F00201B4753A5C12063C300156
:1001D000E3E55C4401F55C765C0201FEE62539F559
:1001E0003A12063C3001CDE6F9873B533BFEA73B74
:1001F000A63AA93A873B433B01A73B0201FE1209FD
:10020000A01209F9120450B4040912054012048A1C
:100210000203DF300005C2000201941208C0120779
:1002200050E539B40602D20078347E02120700206D
:1002300003030203B17934B938412000030202D527
:100240007934B938030202D509E770F6E55C540247
:10025000B402030202D5786CE65401B4011278307E
:0D02600008E6B46CFB7600856C3B533BFE5A
:10026D00853B6C775CE55C4402F55C0203B109E704
:10027D0060B82539C3948050B1E72539C3947C50BB
:10028D00A98907E72539F9E9C3946C4007E9C394B7
:10029D0010F98004E92410F9E75401B401257830F0
:1002AD0008E6B501FB7600873B533BFEA73BA9074C
:1002BD008700E654FDF6E72539F78700E64402F698
:1002CD000203B1A907020237BD00347D01E5366096
:1002DD002E7836E62539C3948050247936E72539B2
:1002ED00F9E75402B4020280168601E62539F68735
:1002FD003B533BFDA73B8601E74402F70203B1BD2B
:10030D0001347D02E537602E7837E62539C39480B8
:10031D0050247937E72539F9E75402B402028016E3
:10032D008601E62539F6873B533BFDA73B8601E762
:10033D004402F70203B1BD02347D03E538602E7827
:10034D0038E62539C3948050247938E72539F9E703
:10035D005402B4020280168601E62539F6873B5316
:0D036D003BFDA73B8601E74402F70203B108
:10037A007D00E535602E7835E62539C39480502412
:10038A007935E72539F9E75402B402028016860165
:10039A00E62539F6873B533BFDA73B8601E7440236
:1003AA00F70203B10202D530030B1205107A1412B8
:1003BA0004F01205401209A01209F9120470B408D7
:1003CA000912054012048A0203DF300005C2000246
:1003DA00021B0201942080FD12049F7A141204F079
:0603EA0012054002017B38
:0F045000787B74000886075307012FB87FF622C8
:0F047000787B74000886075307022FB87FF622A7
:10048A0074901209307457120950744F120950743B
:10049A004E12095022749012093074521209507483
:1004AA004512095074531209507445120950745474
:0404BA0012095022B1
:0D04F000C202D28E3002FDC28E12054022E3
:1005100074901209307449120950744E12095074C3
:100520005312095074501209507445120950744303
:0905300012095074541209502202
:1005400074901209307420120950742012095074EA
:10055000201209507420120950742012095074207E
:0905600012095074201209502206
:10057000749012093074571209507445120950745E
:100580004C1209507443120950744F120950744DA3
:09059000120950744512095022B1
:1005A00074901209307449120950744E1209507433
:1005B000561209507441120950744C120950744972
:0905C00012095074441209502282
:1005D0007490120930744D120950744F12095074FE
:1005E0005612095074451209507420120950744E65
:0905F00012095074411209502255
:1006000085803030800830812430820680F50203F6
:10061000E222D28420820AD285208209D2862082D8
:10062000087831800A783280067833800278347511
:10063000800F75800F3081FA3082F722A93AE9C322
:10064000948040028038E75401B401028030E9C34D
:10065000946C4007E9C39410F98004E92410F9E789
:100660005402B402168807783408E6B501FB760018
:10067000873B533BFDA73BA807A93AD201221205AD
:09068000D07A121204F0C201222A
:100700007F05DF0B1205A07A121204F0C203220843
:10071000E670063000ECD203222539C3948050E203
:0F072000E62539F9E75506B5060280D6D2032241
:100750007A19C202D28E1208703002FAC28E7485E3
:10076000120930E58AC394F9F53924301209502270
:10080000C2041208703080182083F77485120930F2
:10081000E58AC394F9F53924303083FD120950225A
:03082000D20422DD
:0B0870007485120930E58A120950223D
:1008900074C01209307450120950744C120950740B
:1008A000411209507459120950744512095074527A
:0E08B0001209507420120950742012095022AF
:1008C00074C01209307443120950744F12095074E5
:1008D0004D12095074501209507455120950745435
:0E08E000120950744512095074521209502228
:10093000F590C2A4D2A5C2A5120970C4F590C2A4B4
:08094000D2A5C2A51209702224
:10095000F590D2A4D2A5C2A5120970C4F590D2A474
:08096000D2A5C2A51209702204
:050970007C07DCFE2203
:0D0980007401120930784F120970D8FB2263
:1009A000C2A3785B7400C3753009B87F257830B86E
:1009B0003402800E088607BF0004D31380F1C313EE
:1009C00080ED75300813C2A192A0D2A1D530F6D225
:1009D000A322D53013753008C313C2A192A0D2A1AF
:1009E000D530F67400C380BF088607530701BF01E6
:1009F00004D31380B5C31380B1C2A3785B7400C362
:100A0000753009B87F257834B83802800E0886071B
:100A1000BF0004D31380F1C31380ED75300813C2F7
:100A2000A292A0D2A2D530F6D2A322D5301375302F
:100A300008C313C2A292A0D2A2D530F67400C3801C
:100A4000BF088607530702BF0204D31380B5C31340
:030A500080B12250
:00000001FF
